{
    "_format": "hh-sol-artifact-1",
    "contractName": "RandomPicsNFT",
    "sourceName": "contracts/RandomPicsNFT.sol",
    "abi": [
        {
            "inputs": [],
            "stateMutability": "payable",
            "type": "constructor"
        },
        {
            "anonymous": false,
            "inputs": [
                {
                    "indexed": true,
                    "internalType": "address",
                    "name": "owner",
                    "type": "address"
                },
                {
                    "indexed": true,
                    "internalType": "address",
                    "name": "approved",
                    "type": "address"
                },
                {
                    "indexed": true,
                    "internalType": "uint256",
                    "name": "tokenId",
                    "type": "uint256"
                }
            ],
            "name": "Approval",
            "type": "event"
        },
        {
            "anonymous": false,
            "inputs": [
                {
                    "indexed": true,
                    "internalType": "address",
                    "name": "owner",
                    "type": "address"
                },
                {
                    "indexed": true,
                    "internalType": "address",
                    "name": "operator",
                    "type": "address"
                },
                {
                    "indexed": false,
                    "internalType": "bool",
                    "name": "approved",
                    "type": "bool"
                }
            ],
            "name": "ApprovalForAll",
            "type": "event"
        },
        {
            "anonymous": false,
            "inputs": [
                {
                    "indexed": true,
                    "internalType": "address",
                    "name": "previousOwner",
                    "type": "address"
                },
                {
                    "indexed": true,
                    "internalType": "address",
                    "name": "newOwner",
                    "type": "address"
                }
            ],
            "name": "OwnershipTransferred",
            "type": "event"
        },
        {
            "anonymous": false,
            "inputs": [
                {
                    "indexed": true,
                    "internalType": "address",
                    "name": "from",
                    "type": "address"
                },
                {
                    "indexed": true,
                    "internalType": "address",
                    "name": "to",
                    "type": "address"
                },
                {
                    "indexed": true,
                    "internalType": "uint256",
                    "name": "tokenId",
                    "type": "uint256"
                }
            ],
            "name": "Transfer",
            "type": "event"
        },
        {
            "inputs": [
                {
                    "internalType": "address",
                    "name": "to",
                    "type": "address"
                },
                {
                    "internalType": "uint256",
                    "name": "tokenId",
                    "type": "uint256"
                }
            ],
            "name": "approve",
            "outputs": [],
            "stateMutability": "nonpayable",
            "type": "function"
        },
        {
            "inputs": [
                {
                    "internalType": "address",
                    "name": "owner",
                    "type": "address"
                }
            ],
            "name": "balanceOf",
            "outputs": [
                {
                    "internalType": "uint256",
                    "name": "",
                    "type": "uint256"
                }
            ],
            "stateMutability": "view",
            "type": "function"
        },
        {
            "inputs": [
                {
                    "internalType": "uint256",
                    "name": "tokenId",
                    "type": "uint256"
                }
            ],
            "name": "getApproved",
            "outputs": [
                {
                    "internalType": "address",
                    "name": "",
                    "type": "address"
                }
            ],
            "stateMutability": "view",
            "type": "function"
        },
        {
            "inputs": [
                {
                    "internalType": "address",
                    "name": "owner",
                    "type": "address"
                },
                {
                    "internalType": "address",
                    "name": "operator",
                    "type": "address"
                }
            ],
            "name": "isApprovedForAll",
            "outputs": [
                {
                    "internalType": "bool",
                    "name": "",
                    "type": "bool"
                }
            ],
            "stateMutability": "view",
            "type": "function"
        },
        {
            "inputs": [],
            "name": "isPublicMintEnabled",
            "outputs": [
                {
                    "internalType": "bool",
                    "name": "",
                    "type": "bool"
                }
            ],
            "stateMutability": "view",
            "type": "function"
        },
        {
            "inputs": [],
            "name": "maxPerWallet",
            "outputs": [
                {
                    "internalType": "uint256",
                    "name": "",
                    "type": "uint256"
                }
            ],
            "stateMutability": "view",
            "type": "function"
        },
        {
            "inputs": [],
            "name": "maxSupply",
            "outputs": [
                {
                    "internalType": "uint256",
                    "name": "",
                    "type": "uint256"
                }
            ],
            "stateMutability": "view",
            "type": "function"
        },
        {
            "inputs": [
                {
                    "internalType": "uint256",
                    "name": "_quan",
                    "type": "uint256"
                }
            ],
            "name": "mint",
            "outputs": [],
            "stateMutability": "payable",
            "type": "function"
        },
        {
            "inputs": [],
            "name": "mintPrice",
            "outputs": [
                {
                    "internalType": "uint256",
                    "name": "",
                    "type": "uint256"
                }
            ],
            "stateMutability": "view",
            "type": "function"
        },
        {
            "inputs": [],
            "name": "name",
            "outputs": [
                {
                    "internalType": "string",
                    "name": "",
                    "type": "string"
                }
            ],
            "stateMutability": "view",
            "type": "function"
        },
        {
            "inputs": [],
            "name": "owner",
            "outputs": [
                {
                    "internalType": "address",
                    "name": "",
                    "type": "address"
                }
            ],
            "stateMutability": "view",
            "type": "function"
        },
        {
            "inputs": [
                {
                    "internalType": "uint256",
                    "name": "tokenId",
                    "type": "uint256"
                }
            ],
            "name": "ownerOf",
            "outputs": [
                {
                    "internalType": "address",
                    "name": "",
                    "type": "address"
                }
            ],
            "stateMutability": "view",
            "type": "function"
        },
        {
            "inputs": [],
            "name": "renounceOwnership",
            "outputs": [],
            "stateMutability": "nonpayable",
            "type": "function"
        },
        {
            "inputs": [
                {
                    "internalType": "address",
                    "name": "from",
                    "type": "address"
                },
                {
                    "internalType": "address",
                    "name": "to",
                    "type": "address"
                },
                {
                    "internalType": "uint256",
                    "name": "tokenId",
                    "type": "uint256"
                }
            ],
            "name": "safeTransferFrom",
            "outputs": [],
            "stateMutability": "nonpayable",
            "type": "function"
        },
        {
            "inputs": [
                {
                    "internalType": "address",
                    "name": "from",
                    "type": "address"
                },
                {
                    "internalType": "address",
                    "name": "to",
                    "type": "address"
                },
                {
                    "internalType": "uint256",
                    "name": "tokenId",
                    "type": "uint256"
                },
                {
                    "internalType": "bytes",
                    "name": "_data",
                    "type": "bytes"
                }
            ],
            "name": "safeTransferFrom",
            "outputs": [],
            "stateMutability": "nonpayable",
            "type": "function"
        },
        {
            "inputs": [
                {
                    "internalType": "address",
                    "name": "operator",
                    "type": "address"
                },
                {
                    "internalType": "bool",
                    "name": "approved",
                    "type": "bool"
                }
            ],
            "name": "setApprovalForAll",
            "outputs": [],
            "stateMutability": "nonpayable",
            "type": "function"
        },
        {
            "inputs": [
                {
                    "internalType": "string",
                    "name": "_baseTokenUri",
                    "type": "string"
                }
            ],
            "name": "setBaseTokenUri",
            "outputs": [],
            "stateMutability": "nonpayable",
            "type": "function"
        },
        {
            "inputs": [
                {
                    "internalType": "bool",
                    "name": "_isPublicMintEnabled",
                    "type": "bool"
                }
            ],
            "name": "setIsPublicMintEnabled",
            "outputs": [],
            "stateMutability": "nonpayable",
            "type": "function"
        },
        {
            "inputs": [
                {
                    "internalType": "bytes4",
                    "name": "interfaceId",
                    "type": "bytes4"
                }
            ],
            "name": "supportsInterface",
            "outputs": [
                {
                    "internalType": "bool",
                    "name": "",
                    "type": "bool"
                }
            ],
            "stateMutability": "view",
            "type": "function"
        },
        {
            "inputs": [],
            "name": "symbol",
            "outputs": [
                {
                    "internalType": "string",
                    "name": "",
                    "type": "string"
                }
            ],
            "stateMutability": "view",
            "type": "function"
        },
        {
            "inputs": [
                {
                    "internalType": "uint256",
                    "name": "_tokenId",
                    "type": "uint256"
                }
            ],
            "name": "tokenURI",
            "outputs": [
                {
                    "internalType": "string",
                    "name": "",
                    "type": "string"
                }
            ],
            "stateMutability": "view",
            "type": "function"
        },
        {
            "inputs": [],
            "name": "totalSupply",
            "outputs": [
                {
                    "internalType": "uint256",
                    "name": "",
                    "type": "uint256"
                }
            ],
            "stateMutability": "view",
            "type": "function"
        },
        {
            "inputs": [
                {
                    "internalType": "address",
                    "name": "from",
                    "type": "address"
                },
                {
                    "internalType": "address",
                    "name": "to",
                    "type": "address"
                },
                {
                    "internalType": "uint256",
                    "name": "tokenId",
                    "type": "uint256"
                }
            ],
            "name": "transferFrom",
            "outputs": [],
            "stateMutability": "nonpayable",
            "type": "function"
        },
        {
            "inputs": [
                {
                    "internalType": "address",
                    "name": "newOwner",
                    "type": "address"
                }
            ],
            "name": "transferOwnership",
            "outputs": [],
            "stateMutability": "nonpayable",
            "type": "function"
        },
        {
            "inputs": [
                {
                    "internalType": "address",
                    "name": "",
                    "type": "address"
                }
            ],
            "name": "walletMints",
            "outputs": [
                {
                    "internalType": "uint256",
                    "name": "",
                    "type": "uint256"
                }
            ],
            "stateMutability": "view",
            "type": "function"
        },
        {
            "inputs": [],
            "name": "withdraw",
            "outputs": [],
            "stateMutability": "nonpayable",
            "type": "function"
        },
        {
            "inputs": [],
            "name": "withdrawWallet",
            "outputs": [
                {
                    "internalType": "address payable",
                    "name": "",
                    "type": "address"
                }
            ],
            "stateMutability": "view",
            "type": "function"
        }
    ],
    "bytecode": "0x60806040526040518060400160405280600a81526020017f52616e646f6d50696373000000000000000000000000000000000000000000008152506040518060400160405280600281526020017f5250000000000000000000000000000000000000000000000000000000000000815250816000908051906020019062000088929190620001bf565b508060019080519060200190620000a1929190620001bf565b505050620000c4620000b8620000f160201b60201c565b620000f960201b60201c565b662386f26fc1000060078190555060006008819055506113886009819055506005600a81905550620002d4565b600033905090565b6000600660009054906101000a900473ffffffffffffffffffffffffffffffffffffffff16905081600660006101000a81548173ffffffffffffffffffffffffffffffffffffffff021916908373ffffffffffffffffffffffffffffffffffffffff1602179055508173ffffffffffffffffffffffffffffffffffffffff168173ffffffffffffffffffffffffffffffffffffffff167f8be0079c531659141344cd1fd0a4f28419497f9722a3daafe3b4186f6b6457e060405160405180910390a35050565b828054620001cd906200026f565b90600052602060002090601f016020900481019282620001f157600085556200023d565b82601f106200020c57805160ff19168380011785556200023d565b828001600101855582156200023d579182015b828111156200023c5782518255916020019190600101906200021f565b5b5090506200024c919062000250565b5090565b5b808211156200026b57600081600090555060010162000251565b5090565b600060028204905060018216806200028857607f821691505b602082108114156200029f576200029e620002a5565b5b50919050565b7f4e487b7100000000000000000000000000000000000000000000000000000000600052602260045260246000fd5b6137cd80620002e46000396000f3fe60806040526004361061019c5760003560e01c806370a08231116100ec578063a22cb4651161008a578063d5abeb0111610064578063d5abeb0114610593578063e985e9c5146105be578063f0293fd3146105fb578063f2fde38b146106385761019c565b8063a22cb46514610504578063b88d4fde1461052d578063c87b56dd146105565761019c565b80638da5cb5b116100c65780638da5cb5b1461046957806395652cfa1461049457806395d89b41146104bd578063a0712d68146104e85761019c565b806370a08231146103ea578063715018a61461042757806385d178f41461043e5761019c565b80632373ac221161015957806342842e0e1161013357806342842e0e1461032e578063453c2310146103575780636352211e146103825780636817c76c146103bf5761019c565b80632373ac22146102c557806323b872dd146102ee5780633ccfd60b146103175761019c565b80630116bc2d146101a157806301ffc9a7146101cc57806306fdde0314610209578063081812fc14610234578063095ea7b31461027157806318160ddd1461029a575b600080fd5b3480156101ad57600080fd5b506101b6610661565b6040516101c39190612aa1565b60405180910390f35b3480156101d857600080fd5b506101f360048036038101906101ee9190612498565b610674565b6040516102009190612aa1565b60405180910390f35b34801561021557600080fd5b5061021e610756565b60405161022b9190612abc565b60405180910390f35b34801561024057600080fd5b5061025b6004803603810190610256919061252f565b6107e8565b6040516102689190612a1f565b60405180910390f35b34801561027d57600080fd5b5061029860048036038101906102939190612433565b61086d565b005b3480156102a657600080fd5b506102af610985565b6040516102bc9190612d7e565b60405180910390f35b3480156102d157600080fd5b506102ec60048036038101906102e7919061246f565b61098b565b005b3480156102fa57600080fd5b506103156004803603810190610310919061232d565b610a24565b005b34801561032357600080fd5b5061032c610a84565b005b34801561033a57600080fd5b506103556004803603810190610350919061232d565b610bd1565b005b34801561036357600080fd5b5061036c610bf1565b6040516103799190612d7e565b60405180910390f35b34801561038e57600080fd5b506103a960048036038101906103a4919061252f565b610bf7565b6040516103b69190612a1f565b60405180910390f35b3480156103cb57600080fd5b506103d4610ca9565b6040516103e19190612d7e565b60405180910390f35b3480156103f657600080fd5b50610411600480360381019061040c91906122c8565b610caf565b60405161041e9190612d7e565b60405180910390f35b34801561043357600080fd5b5061043c610d67565b005b34801561044a57600080fd5b50610453610def565b6040516104609190612a3a565b60405180910390f35b34801561047557600080fd5b5061047e610e15565b60405161048b9190612a1f565b60405180910390f35b3480156104a057600080fd5b506104bb60048036038101906104b691906124ea565b610e3f565b005b3480156104c957600080fd5b506104d2610ed1565b6040516104df9190612abc565b60405180910390f35b61050260048036038101906104fd919061252f565b610f63565b005b34801561051057600080fd5b5061052b600480360381019061052691906123f7565b61113d565b005b34801561053957600080fd5b50610554600480360381019061054f919061237c565b611153565b005b34801561056257600080fd5b5061057d6004803603810190610578919061252f565b6111b5565b60405161058a9190612abc565b60405180910390f35b34801561059f57600080fd5b506105a8611231565b6040516105b59190612d7e565b60405180910390f35b3480156105ca57600080fd5b506105e560048036038101906105e091906122f1565b611237565b6040516105f29190612aa1565b60405180910390f35b34801561060757600080fd5b50610622600480360381019061061d91906122c8565b6112cb565b60405161062f9190612d7e565b60405180910390f35b34801561064457600080fd5b5061065f600480360381019061065a91906122c8565b6112e3565b005b600b60009054906101000a900460ff1681565b60007f80ac58cd000000000000000000000000000000000000000000000000000000007bffffffffffffffffffffffffffffffffffffffffffffffffffffffff1916827bffffffffffffffffffffffffffffffffffffffffffffffffffffffff1916148061073f57507f5b5e139f000000000000000000000000000000000000000000000000000000007bffffffffffffffffffffffffffffffffffffffffffffffffffffffff1916827bffffffffffffffffffffffffffffffffffffffffffffffffffffffff1916145b8061074f575061074e826113db565b5b9050919050565b6060600080546107659061303c565b80601f01602080910402602001604051908101604052809291908181526020018280546107919061303c565b80156107de5780601f106107b3576101008083540402835291602001916107de565b820191906000526020600020905b8154815290600101906020018083116107c157829003601f168201915b5050505050905090565b60006107f382611445565b610832576040517f08c379a000000000000000000000000000000000000000000000000000000000815260040161082990612c9e565b60405180910390fd5b6004600083815260200190815260200160002060009054906101000a900473ffffffffffffffffffffffffffffffffffffffff169050919050565b600061087882610bf7565b90508073ffffffffffffffffffffffffffffffffffffffff168373ffffffffffffffffffffffffffffffffffffffff1614156108e9576040517f08c379a00000000000000000000000000000000000000000000000000000000081526004016108e090612cfe565b60405180910390fd5b8073ffffffffffffffffffffffffffffffffffffffff166109086114b1565b73ffffffffffffffffffffffffffffffffffffffff1614806109375750610936816109316114b1565b611237565b5b610976576040517f08c379a000000000000000000000000000000000000000000000000000000000815260040161096d90612c1e565b60405180910390fd5b61098083836114b9565b505050565b60085481565b6109936114b1565b73ffffffffffffffffffffffffffffffffffffffff166109b1610e15565b73ffffffffffffffffffffffffffffffffffffffff1614610a07576040517f08c379a00000000000000000000000000000000000000000000000000000000081526004016109fe90612cde565b60405180910390fd5b80600b60006101000a81548160ff02191690831515021790555050565b610a35610a2f6114b1565b82611572565b610a74576040517f08c379a0000000000000000000000000000000000000000000000000000000008152600401610a6b90612d1e565b60405180910390fd5b610a7f838383611650565b505050565b610a8c6114b1565b73ffffffffffffffffffffffffffffffffffffffff16610aaa610e15565b73ffffffffffffffffffffffffffffffffffffffff1614610b00576040517f08c379a0000000000000000000000000000000000000000000000000000000008152600401610af790612cde565b60405180910390fd5b6000600d60009054906101000a900473ffffffffffffffffffffffffffffffffffffffff1673ffffffffffffffffffffffffffffffffffffffff1647604051610b4890612a0a565b60006040518083038185875af1925050503d8060008114610b85576040519150601f19603f3d011682016040523d82523d6000602084013e610b8a565b606091505b5050905080610bce576040517f08c379a0000000000000000000000000000000000000000000000000000000008152600401610bc590612d5e565b60405180910390fd5b50565b610bec83838360405180602001604052806000815250611153565b505050565b600a5481565b6000806002600084815260200190815260200160002060009054906101000a900473ffffffffffffffffffffffffffffffffffffffff169050600073ffffffffffffffffffffffffffffffffffffffff168173ffffffffffffffffffffffffffffffffffffffff161415610ca0576040517f08c379a0000000000000000000000000000000000000000000000000000000008152600401610c9790612c5e565b60405180910390fd5b80915050919050565b60075481565b60008073ffffffffffffffffffffffffffffffffffffffff168273ffffffffffffffffffffffffffffffffffffffff161415610d20576040517f08c379a0000000000000000000000000000000000000000000000000000000008152600401610d1790612c3e565b60405180910390fd5b600360008373ffffffffffffffffffffffffffffffffffffffff1673ffffffffffffffffffffffffffffffffffffffff168152602001908152602001600020549050919050565b610d6f6114b1565b73ffffffffffffffffffffffffffffffffffffffff16610d8d610e15565b73ffffffffffffffffffffffffffffffffffffffff1614610de3576040517f08c379a0000000000000000000000000000000000000000000000000000000008152600401610dda90612cde565b60405180910390fd5b610ded60006118b7565b565b600d60009054906101000a900473ffffffffffffffffffffffffffffffffffffffff1681565b6000600660009054906101000a900473ffffffffffffffffffffffffffffffffffffffff16905090565b610e476114b1565b73ffffffffffffffffffffffffffffffffffffffff16610e65610e15565b73ffffffffffffffffffffffffffffffffffffffff1614610ebb576040517f08c379a0000000000000000000000000000000000000000000000000000000008152600401610eb290612cde565b60405180910390fd5b8181600c9190610ecc92919061210a565b505050565b606060018054610ee09061303c565b80601f0160208091040260200160405190810160405280929190818152602001828054610f0c9061303c565b8015610f595780601f10610f2e57610100808354040283529160200191610f59565b820191906000526020600020905b815481529060010190602001808311610f3c57829003601f168201915b5050505050905090565b600b60009054906101000a900460ff16610fb2576040517f08c379a0000000000000000000000000000000000000000000000000000000008152600401610fa990612b1e565b60405180910390fd5b60075481610fc09190612ed9565b3414611001576040517f08c379a0000000000000000000000000000000000000000000000000000000008152600401610ff890612ade565b60405180910390fd5b600954816008546110129190612e52565b1115611053576040517f08c379a000000000000000000000000000000000000000000000000000000000815260040161104a90612bfe565b60405180910390fd5b600a5481600e60003373ffffffffffffffffffffffffffffffffffffffff1673ffffffffffffffffffffffffffffffffffffffff168152602001908152602001600020546110a19190612e52565b11156110e2576040517f08c379a00000000000000000000000000000000000000000000000000000000081526004016110d990612cbe565b60405180910390fd5b60005b818160ff16101561113957600060016008546111019190612e52565b9050600860008154809291906111169061309f565b9190505550611125338261197d565b508080611131906130e8565b9150506110e5565b5050565b61114f6111486114b1565b838361199b565b5050565b61116461115e6114b1565b83611572565b6111a3576040517f08c379a000000000000000000000000000000000000000000000000000000000815260040161119a90612d1e565b60405180910390fd5b6111af84848484611b08565b50505050565b60606111c082611445565b6111ff576040517f08c379a00000000000000000000000000000000000000000000000000000000081526004016111f690612d3e565b60405180910390fd5b600c61120a83611b64565b60405160200161121b9291906129db565b6040516020818303038152906040529050919050565b60095481565b6000600560008473ffffffffffffffffffffffffffffffffffffffff1673ffffffffffffffffffffffffffffffffffffffff16815260200190815260200160002060008373ffffffffffffffffffffffffffffffffffffffff1673ffffffffffffffffffffffffffffffffffffffff16815260200190815260200160002060009054906101000a900460ff16905092915050565b600e6020528060005260406000206000915090505481565b6112eb6114b1565b73ffffffffffffffffffffffffffffffffffffffff16611309610e15565b73ffffffffffffffffffffffffffffffffffffffff161461135f576040517f08c379a000000000000000000000000000000000000000000000000000000000815260040161135690612cde565b60405180910390fd5b600073ffffffffffffffffffffffffffffffffffffffff168173ffffffffffffffffffffffffffffffffffffffff1614156113cf576040517f08c379a00000000000000000000000000000000000000000000000000000000081526004016113c690612b3e565b60405180910390fd5b6113d8816118b7565b50565b60007f01ffc9a7000000000000000000000000000000000000000000000000000000007bffffffffffffffffffffffffffffffffffffffffffffffffffffffff1916827bffffffffffffffffffffffffffffffffffffffffffffffffffffffff1916149050919050565b60008073ffffffffffffffffffffffffffffffffffffffff166002600084815260200190815260200160002060009054906101000a900473ffffffffffffffffffffffffffffffffffffffff1673ffffffffffffffffffffffffffffffffffffffff1614159050919050565b600033905090565b816004600083815260200190815260200160002060006101000a81548173ffffffffffffffffffffffffffffffffffffffff021916908373ffffffffffffffffffffffffffffffffffffffff160217905550808273ffffffffffffffffffffffffffffffffffffffff1661152c83610bf7565b73ffffffffffffffffffffffffffffffffffffffff167f8c5be1e5ebec7d5bd14f71427d1e84f3dd0314c0f7b2291e5b200ac8c7c3b92560405160405180910390a45050565b600061157d82611445565b6115bc576040517f08c379a00000000000000000000000000000000000000000000000000000000081526004016115b390612bde565b60405180910390fd5b60006115c783610bf7565b90508073ffffffffffffffffffffffffffffffffffffffff168473ffffffffffffffffffffffffffffffffffffffff16148061163657508373ffffffffffffffffffffffffffffffffffffffff1661161e846107e8565b73ffffffffffffffffffffffffffffffffffffffff16145b8061164757506116468185611237565b5b91505092915050565b8273ffffffffffffffffffffffffffffffffffffffff1661167082610bf7565b73ffffffffffffffffffffffffffffffffffffffff16146116c6576040517f08c379a00000000000000000000000000000000000000000000000000000000081526004016116bd90612b5e565b60405180910390fd5b600073ffffffffffffffffffffffffffffffffffffffff168273ffffffffffffffffffffffffffffffffffffffff161415611736576040517f08c379a000000000000000000000000000000000000000000000000000000000815260040161172d90612b9e565b60405180910390fd5b611741838383611d11565b61174c6000826114b9565b6001600360008573ffffffffffffffffffffffffffffffffffffffff1673ffffffffffffffffffffffffffffffffffffffff168152602001908152602001600020600082825461179c9190612f33565b925050819055506001600360008473ffffffffffffffffffffffffffffffffffffffff1673ffffffffffffffffffffffffffffffffffffffff16815260200190815260200160002060008282546117f39190612e52565b92505081905550816002600083815260200190815260200160002060006101000a81548173ffffffffffffffffffffffffffffffffffffffff021916908373ffffffffffffffffffffffffffffffffffffffff160217905550808273ffffffffffffffffffffffffffffffffffffffff168473ffffffffffffffffffffffffffffffffffffffff167fddf252ad1be2c89b69c2b068fc378daa952ba7f163c4a11628f55a4df523b3ef60405160405180910390a46118b2838383611d16565b505050565b6000600660009054906101000a900473ffffffffffffffffffffffffffffffffffffffff16905081600660006101000a81548173ffffffffffffffffffffffffffffffffffffffff021916908373ffffffffffffffffffffffffffffffffffffffff1602179055508173ffffffffffffffffffffffffffffffffffffffff168173ffffffffffffffffffffffffffffffffffffffff167f8be0079c531659141344cd1fd0a4f28419497f9722a3daafe3b4186f6b6457e060405160405180910390a35050565b611997828260405180602001604052806000815250611d1b565b5050565b8173ffffffffffffffffffffffffffffffffffffffff168373ffffffffffffffffffffffffffffffffffffffff161415611a0a576040517f08c379a0000000000000000000000000000000000000000000000000000000008152600401611a0190612bbe565b60405180910390fd5b80600560008573ffffffffffffffffffffffffffffffffffffffff1673ffffffffffffffffffffffffffffffffffffffff16815260200190815260200160002060008473ffffffffffffffffffffffffffffffffffffffff1673ffffffffffffffffffffffffffffffffffffffff16815260200190815260200160002060006101000a81548160ff0219169083151502179055508173ffffffffffffffffffffffffffffffffffffffff168373ffffffffffffffffffffffffffffffffffffffff167f17307eab39ab6107e8899845ad3d59bd9653f200f220920489ca2b5937696c3183604051611afb9190612aa1565b60405180910390a3505050565b611b13848484611650565b611b1f84848484611d76565b611b5e576040517f08c379a0000000000000000000000000000000000000000000000000000000008152600401611b5590612afe565b60405180910390fd5b50505050565b60606000821415611bac576040518060400160405280600181526020017f30000000000000000000000000000000000000000000000000000000000000008152509050611d0c565b600082905060005b60008214611bde578080611bc79061309f565b915050600a82611bd79190612ea8565b9150611bb4565b60008167ffffffffffffffff811115611c20577f4e487b7100000000000000000000000000000000000000000000000000000000600052604160045260246000fd5b6040519080825280601f01601f191660200182016040528015611c525781602001600182028036833780820191505090505b5090505b60008514611d0557600182611c6b9190612f33565b9150600a85611c7a9190613112565b6030611c869190612e52565b60f81b818381518110611cc2577f4e487b7100000000000000000000000000000000000000000000000000000000600052603260045260246000fd5b60200101907effffffffffffffffffffffffffffffffffffffffffffffffffffffffffffff1916908160001a905350600a85611cfe9190612ea8565b9450611c56565b8093505050505b919050565b505050565b505050565b611d258383611f0d565b611d326000848484611d76565b611d71576040517f08c379a0000000000000000000000000000000000000000000000000000000008152600401611d6890612afe565b60405180910390fd5b505050565b6000611d978473ffffffffffffffffffffffffffffffffffffffff166120e7565b15611f00578373ffffffffffffffffffffffffffffffffffffffff1663150b7a02611dc06114b1565b8786866040518563ffffffff1660e01b8152600401611de29493929190612a55565b602060405180830381600087803b158015611dfc57600080fd5b505af1925050508015611e2d57506040513d601f19601f82011682018060405250810190611e2a91906124c1565b60015b611eb0573d8060008114611e5d576040519150601f19603f3d011682016040523d82523d6000602084013e611e62565b606091505b50600081511415611ea8576040517f08c379a0000000000000000000000000000000000000000000000000000000008152600401611e9f90612afe565b60405180910390fd5b805181602001fd5b63150b7a0260e01b7bffffffffffffffffffffffffffffffffffffffffffffffffffffffff1916817bffffffffffffffffffffffffffffffffffffffffffffffffffffffff191614915050611f05565b600190505b949350505050565b600073ffffffffffffffffffffffffffffffffffffffff168273ffffffffffffffffffffffffffffffffffffffff161415611f7d576040517f08c379a0000000000000000000000000000000000000000000000000000000008152600401611f7490612c7e565b60405180910390fd5b611f8681611445565b15611fc6576040517f08c379a0000000000000000000000000000000000000000000000000000000008152600401611fbd90612b7e565b60405180910390fd5b611fd260008383611d11565b6001600360008473ffffffffffffffffffffffffffffffffffffffff1673ffffffffffffffffffffffffffffffffffffffff16815260200190815260200160002060008282546120229190612e52565b92505081905550816002600083815260200190815260200160002060006101000a81548173ffffffffffffffffffffffffffffffffffffffff021916908373ffffffffffffffffffffffffffffffffffffffff160217905550808273ffffffffffffffffffffffffffffffffffffffff16600073ffffffffffffffffffffffffffffffffffffffff167fddf252ad1be2c89b69c2b068fc378daa952ba7f163c4a11628f55a4df523b3ef60405160405180910390a46120e360008383611d16565b5050565b6000808273ffffffffffffffffffffffffffffffffffffffff163b119050919050565b8280546121169061303c565b90600052602060002090601f016020900481019282612138576000855561217f565b82601f1061215157803560ff191683800117855561217f565b8280016001018555821561217f579182015b8281111561217e578235825591602001919060010190612163565b5b50905061218c9190612190565b5090565b5b808211156121a9576000816000905550600101612191565b5090565b60006121c06121bb84612dbe565b612d99565b9050828152602081018484840111156121d857600080fd5b6121e3848285612ffa565b509392505050565b6000813590506121fa8161373b565b92915050565b60008135905061220f81613752565b92915050565b60008135905061222481613769565b92915050565b60008151905061223981613769565b92915050565b600082601f83011261225057600080fd5b81356122608482602086016121ad565b91505092915050565b60008083601f84011261227b57600080fd5b8235905067ffffffffffffffff81111561229457600080fd5b6020830191508360018202830111156122ac57600080fd5b9250929050565b6000813590506122c281613780565b92915050565b6000602082840312156122da57600080fd5b60006122e8848285016121eb565b91505092915050565b6000806040838503121561230457600080fd5b6000612312858286016121eb565b9250506020612323858286016121eb565b9150509250929050565b60008060006060848603121561234257600080fd5b6000612350868287016121eb565b9350506020612361868287016121eb565b9250506040612372868287016122b3565b9150509250925092565b6000806000806080858703121561239257600080fd5b60006123a0878288016121eb565b94505060206123b1878288016121eb565b93505060406123c2878288016122b3565b925050606085013567ffffffffffffffff8111156123df57600080fd5b6123eb8782880161223f565b91505092959194509250565b6000806040838503121561240a57600080fd5b6000612418858286016121eb565b925050602061242985828601612200565b9150509250929050565b6000806040838503121561244657600080fd5b6000612454858286016121eb565b9250506020612465858286016122b3565b9150509250929050565b60006020828403121561248157600080fd5b600061248f84828501612200565b91505092915050565b6000602082840312156124aa57600080fd5b60006124b884828501612215565b91505092915050565b6000602082840312156124d357600080fd5b60006124e18482850161222a565b91505092915050565b600080602083850312156124fd57600080fd5b600083013567ffffffffffffffff81111561251757600080fd5b61252385828601612269565b92509250509250929050565b60006020828403121561254157600080fd5b600061254f848285016122b3565b91505092915050565b61256181612f79565b82525050565b61257081612f67565b82525050565b61257f81612f8b565b82525050565b600061259082612e04565b61259a8185612e1a565b93506125aa818560208601613009565b6125b3816131ff565b840191505092915050565b60006125c982612e0f565b6125d38185612e36565b93506125e3818560208601613009565b6125ec816131ff565b840191505092915050565b600061260282612e0f565b61260c8185612e47565b935061261c818560208601613009565b80840191505092915050565b600081546126358161303c565b61263f8186612e47565b9450600182166000811461265a576001811461266b5761269e565b60ff1983168652818601935061269e565b61267485612def565b60005b8381101561269657815481890152600182019150602081019050612677565b838801955050505b50505092915050565b60006126b4601083612e36565b91506126bf82613210565b602082019050919050565b60006126d7603283612e36565b91506126e282613239565b604082019050919050565b60006126fa601383612e36565b915061270582613288565b602082019050919050565b600061271d602683612e36565b9150612728826132b1565b604082019050919050565b6000612740602583612e36565b915061274b82613300565b604082019050919050565b6000612763601c83612e36565b915061276e8261334f565b602082019050919050565b6000612786602483612e36565b915061279182613378565b604082019050919050565b60006127a9601983612e36565b91506127b4826133c7565b602082019050919050565b60006127cc602c83612e36565b91506127d7826133f0565b604082019050919050565b60006127ef600883612e36565b91506127fa8261343f565b602082019050919050565b6000612812603883612e36565b915061281d82613468565b604082019050919050565b6000612835602a83612e36565b9150612840826134b7565b604082019050919050565b6000612858602983612e36565b915061286382613506565b604082019050919050565b600061287b602083612e36565b915061288682613555565b602082019050919050565b600061289e602c83612e36565b91506128a98261357e565b604082019050919050565b60006128c1600583612e47565b91506128cc826135cd565b600582019050919050565b60006128e4601183612e36565b91506128ef826135f6565b602082019050919050565b6000612907602083612e36565b91506129128261361f565b602082019050919050565b600061292a602183612e36565b915061293582613648565b604082019050919050565b600061294d600083612e2b565b915061295882613697565b600082019050919050565b6000612970603183612e36565b915061297b8261369a565b604082019050919050565b6000612993601683612e36565b915061299e826136e9565b602082019050919050565b60006129b6600f83612e36565b91506129c182613712565b602082019050919050565b6129d581612fe3565b82525050565b60006129e78285612628565b91506129f382846125f7565b91506129fe826128b4565b91508190509392505050565b6000612a1582612940565b9150819050919050565b6000602082019050612a346000830184612567565b92915050565b6000602082019050612a4f6000830184612558565b92915050565b6000608082019050612a6a6000830187612567565b612a776020830186612567565b612a8460408301856129cc565b8181036060830152612a968184612585565b905095945050505050565b6000602082019050612ab66000830184612576565b92915050565b60006020820190508181036000830152612ad681846125be565b905092915050565b60006020820190508181036000830152612af7816126a7565b9050919050565b60006020820190508181036000830152612b17816126ca565b9050919050565b60006020820190508181036000830152612b37816126ed565b9050919050565b60006020820190508181036000830152612b5781612710565b9050919050565b60006020820190508181036000830152612b7781612733565b9050919050565b60006020820190508181036000830152612b9781612756565b9050919050565b60006020820190508181036000830152612bb781612779565b9050919050565b60006020820190508181036000830152612bd78161279c565b9050919050565b60006020820190508181036000830152612bf7816127bf565b9050919050565b60006020820190508181036000830152612c17816127e2565b9050919050565b60006020820190508181036000830152612c3781612805565b9050919050565b60006020820190508181036000830152612c5781612828565b9050919050565b60006020820190508181036000830152612c778161284b565b9050919050565b60006020820190508181036000830152612c978161286e565b9050919050565b60006020820190508181036000830152612cb781612891565b9050919050565b60006020820190508181036000830152612cd7816128d7565b9050919050565b60006020820190508181036000830152612cf7816128fa565b9050919050565b60006020820190508181036000830152612d178161291d565b9050919050565b60006020820190508181036000830152612d3781612963565b9050919050565b60006020820190508181036000830152612d5781612986565b9050919050565b60006020820190508181036000830152612d77816129a9565b9050919050565b6000602082019050612d9360008301846129cc565b92915050565b6000612da3612db4565b9050612daf828261306e565b919050565b6000604051905090565b600067ffffffffffffffff821115612dd957612dd86131d0565b5b612de2826131ff565b9050602081019050919050565b60008190508160005260206000209050919050565b600081519050919050565b600081519050919050565b600082825260208201905092915050565b600081905092915050565b600082825260208201905092915050565b600081905092915050565b6000612e5d82612fe3565b9150612e6883612fe3565b9250827fffffffffffffffffffffffffffffffffffffffffffffffffffffffffffffffff03821115612e9d57612e9c613143565b5b828201905092915050565b6000612eb382612fe3565b9150612ebe83612fe3565b925082612ece57612ecd613172565b5b828204905092915050565b6000612ee482612fe3565b9150612eef83612fe3565b9250817fffffffffffffffffffffffffffffffffffffffffffffffffffffffffffffffff0483118215151615612f2857612f27613143565b5b828202905092915050565b6000612f3e82612fe3565b9150612f4983612fe3565b925082821015612f5c57612f5b613143565b5b828203905092915050565b6000612f7282612fc3565b9050919050565b6000612f8482612fc3565b9050919050565b60008115159050919050565b60007fffffffff0000000000000000000000000000000000000000000000000000000082169050919050565b600073ffffffffffffffffffffffffffffffffffffffff82169050919050565b6000819050919050565b600060ff82169050919050565b82818337600083830152505050565b60005b8381101561302757808201518184015260208101905061300c565b83811115613036576000848401525b50505050565b6000600282049050600182168061305457607f821691505b60208210811415613068576130676131a1565b5b50919050565b613077826131ff565b810181811067ffffffffffffffff82111715613096576130956131d0565b5b80604052505050565b60006130aa82612fe3565b91507fffffffffffffffffffffffffffffffffffffffffffffffffffffffffffffffff8214156130dd576130dc613143565b5b600182019050919050565b60006130f382612fed565b915060ff82141561310757613106613143565b5b600182019050919050565b600061311d82612fe3565b915061312883612fe3565b92508261313857613137613172565b5b828206905092915050565b7f4e487b7100000000000000000000000000000000000000000000000000000000600052601160045260246000fd5b7f4e487b7100000000000000000000000000000000000000000000000000000000600052601260045260246000fd5b7f4e487b7100000000000000000000000000000000000000000000000000000000600052602260045260246000fd5b7f4e487b7100000000000000000000000000000000000000000000000000000000600052604160045260246000fd5b6000601f19601f8301169050919050565b7f77726f6e67206d696e742076616c756500000000000000000000000000000000600082015250565b7f4552433732313a207472616e7366657220746f206e6f6e20455243373231526560008201527f63656976657220696d706c656d656e7465720000000000000000000000000000602082015250565b7f6d696e74696e67206e6f7420656e61626c656400000000000000000000000000600082015250565b7f4f776e61626c653a206e6577206f776e657220697320746865207a65726f206160008201527f6464726573730000000000000000000000000000000000000000000000000000602082015250565b7f4552433732313a207472616e736665722066726f6d20696e636f72726563742060008201527f6f776e6572000000000000000000000000000000000000000000000000000000602082015250565b7f4552433732313a20746f6b656e20616c7265616479206d696e74656400000000600082015250565b7f4552433732313a207472616e7366657220746f20746865207a65726f2061646460008201527f7265737300000000000000000000000000000000000000000000000000000000602082015250565b7f4552433732313a20617070726f766520746f2063616c6c657200000000000000600082015250565b7f4552433732313a206f70657261746f7220717565727920666f72206e6f6e657860008201527f697374656e7420746f6b656e0000000000000000000000000000000000000000602082015250565b7f736f6c64206f7574000000000000000000000000000000000000000000000000600082015250565b7f4552433732313a20617070726f76652063616c6c6572206973206e6f74206f7760008201527f6e6572206e6f7220617070726f76656420666f7220616c6c0000000000000000602082015250565b7f4552433732313a2062616c616e636520717565727920666f7220746865207a6560008201527f726f206164647265737300000000000000000000000000000000000000000000602082015250565b7f4552433732313a206f776e657220717565727920666f72206e6f6e657869737460008201527f656e7420746f6b656e0000000000000000000000000000000000000000000000602082015250565b7f4552433732313a206d696e7420746f20746865207a65726f2061646472657373600082015250565b7f4552433732313a20617070726f76656420717565727920666f72206e6f6e657860008201527f697374656e7420746f6b656e0000000000000000000000000000000000000000602082015250565b7f2e6a736f6e000000000000000000000000000000000000000000000000000000600082015250565b7f657863656564206d61782077616c6c6574000000000000000000000000000000600082015250565b7f4f776e61626c653a2063616c6c6572206973206e6f7420746865206f776e6572600082015250565b7f4552433732313a20617070726f76616c20746f2063757272656e74206f776e6560008201527f7200000000000000000000000000000000000000000000000000000000000000602082015250565b50565b7f4552433732313a207472616e736665722063616c6c6572206973206e6f74206f60008201527f776e6572206e6f7220617070726f766564000000000000000000000000000000602082015250565b7f546f6b656e20646f6573206e6f74206578697374732100000000000000000000600082015250565b7f7769746864726177206661696c65640000000000000000000000000000000000600082015250565b61374481612f67565b811461374f57600080fd5b50565b61375b81612f8b565b811461376657600080fd5b50565b61377281612f97565b811461377d57600080fd5b50565b61378981612fe3565b811461379457600080fd5b5056fea2646970667358221220bfe5b960221d33a7062eaf14082e101f7daf825413980705a037993c42db0cc564736f6c63430008040033",
    "linkReferences": {},
    "deployedLinkReferences": {}
}